:020000040800F2
:10000000C0060020AD0100089B1D00083B1C000835
:10001000991D0008910A0008051E00080000000054
:100020000000000000000000000000009F1D00080C
:10003000930A0008000000009D1D0008A11D000893
:10004000C7010008C7010008C7010008C701000870
:10005000C7010008C7010008C7010008C701000860
:10006000C7010008C7010008C7010008C701000850
:10007000C7010008C7010008C7010008C701000840
:10008000C7010008C7010008C70100080000000000
:10009000000000000000000000000000C701000890
:1000A000C7010008C7010008C7010008C701000810
:1000B000C7010008C7010008C7010008C701000800
:1000C000C7010008C7010008C7010008C7010008F0
:1000D000C7010008C7010008ED1D0008000000006E
:1000E000C7010008C7010008C701000800000000A0
:1000F000000000000000000000000000C701000830
:1001000000000000C7010008C7010008C70100087F
:1001100000000000000000000000000000000000DF
:10012000C7010008C7010008C7010008C70100088F
:10013000C7010008000000000000000000000000EF
:10014000000000000000000000000000C7010008DF
:10015000C7010008C7010008C7010008F91D000811
:10016000C7010008C70100080000000000000000EF
:10017000000000000000000000000000000000007F
:1001800000000000C701000800000000000000009F
:10019000C7010008DFF810D000F034F9004800472C
:1001A000D9290008AFF30080C00600200648804728
:1001B00006480047FEE7FEE7FEE7FEE7FEE7FEE74C
:1001C000FEE7FEE7FEE7FEE7A51D00089501000833
:1001D0002DE9F05F0546002092469B46884606467C
:1001E000814640241BE0284641464746224600F00F
:1001F00072F853465A46C01A914110D31146184618
:10020000224600F059F82D1A67EB01084F462246A6
:100210000120002100F050F817EB00094E41201E8C
:10022000A4F10104DFDC484631462A464346BDE8D6
:10023000F09FD2B201E000F8012B491EFBD27047BB
:100240000022F6E710B513460A4604461946FFF7A2
:10025000F0FF204610BD421C10F8011B0029FBD105
:10026000801A704710B5002200E0521C835C8C5C41
:10027000A34201D1002BF8D1D8B2E1B2401A10BD8F
:1002800001F0004330B421F0004150EA010206D0F1
:100290000A0DA2F56072C1F31301002A02DC30BC22
:1002A00000207047440F44EAC104C100E01830BC8C
:1002B00000EBC25000F06EB8202A04DB203A00FAAE
:1002C00002F1002070479140C2F1200320FA03F3AD
:1002D000194390407047202A04DB203A21FA02F0AB
:1002E0000021704721FA02F3D040C2F12002914070
:1002F00008431946704700000FB4002300B589B0C9
:100300000CA900910B996FF00042CB601E4B069335
:100310001E4B07930423CDE901321D4A0892024681
:100320006B46002000F01AF909B05DF814FB70B5B7
:1003300086B006464FF0FF300091CDE90101002064
:1003400015460C4604903246694604A8FFF7D4FFD0
:1003500002460498211825B108B1084600E020465D
:100360002860049800280DD0002A02DD00988842F9
:1003700008D0081B0094CDE901043246694604A860
:10038000FFF7BAFF06B070BD95070008B307000875
:10039000290400080029A8BF7047401C490008BF75
:1003A00020F00100704710B4B0FA80FC00FA0CF0A5
:1003B00050EA010404BF10BC704749B1CCF12004DD
:1003C00021FA04F411FA0CF118BF0121214308436A
:1003D000A3EB0C01CB1D4FEA00614FEA102042BF96
:1003E000002010BC704700EBC35010440029A4BF8C
:1003F00010BC7047401C490008BF20F0010010BC31
:1004000070470000064C074D06E0E06840F001032D
:1004100094E8070098471034AC42F6D3FFF7BEFECD
:100420006437000884370008C0B24FF4F05100F080
:10043000D1B900002DE9FF4F087883B09946FF2815
:1004400005D0491C2D2804D00024002008E00020FD
:100450000BE00124F9E700EB800003EB4000491CAE
:100460000B78FF2BF7D104B140420023029314789C
:1004700019461D462D2C01D02B2C04D1521C2D2C9D
:1004800013D000240294AA461478FF2C0FD00A251A
:10049000A3FB057801FB05814FF0000C03FB0C1159
:1004A000521CE3194AEB0101EEE70124EAE781441B
:1004B00053EA010002D019F5C87F06DA039800213B
:1004C000C0E9001107B0BDE8F08F0025AE4E2F4601
:1004D000DFF8B882184600F072FACDE90001B9F1F0
:1004E000000002DAC9F1000400E004460023A74A34
:1004F0001AEB030B42EB045A12E0E00707D02A463E
:1005000033463846414600F079F9074688462A4680
:1005100033461046194600F071F905460E46641040
:10052000002CEAD1DDE90001B9F1000F5A4653462B
:1005300006DA00F0D5F93A46434600F0D1F905E075
:1005400000F05CF93A46434600F058F9029A0AB1C5
:1005500081F00041039AC2E90001B3E72DE9FF4FA2
:100560001F468DB0D7E901464FF0FF382E20454693
:100570004FF000090B90B9696D1C0E988847396AD5
:10058000824688470028F6D1BAF1FF3F0AD024F40A
:10059000D064002E11DDBAF12B0F08D0BAF12D0F67
:1005A0000BD102E0404611B08DE744F48064B96994
:1005B0006D1C0E9888478246761E6946600501D5F7
:1005C0002D2000E02B208DF8000001F1010B0DF132
:1005D000200809E0B9696D1C0E98884782460F987B
:1005E00044F40074761E0560002E02DDBAF1300F6F
:1005F000F0D00B998A453ED144F0800406E00F9973
:10060000681CA9F1010944F400740860B9696D1C03
:10061000761E0E98884782463028F0D02BE00B9942
:100620008A4505D1200603D444F08004761E18E0E4
:10063000504602F0C9F908B30DF11301761E44F4D7
:1006400000748B4508D2AAF130000BF8010B20068C
:1006500007D5A9F1010003E0200602D409F1010049
:100660008146A00502D50F99681C0860B9696D1C08
:100670000E9888478246002ED1DC53E0002E51DDD3
:10068000BAF1650F02D0BAF1450F4BD1A00549D59B
:10069000B9696D1C24F44074761E0E988847824612
:1006A000002E0CDD2B2804D0BAF12D0F07D144F415
:1006B0008074B9696D1C0E9888478246761EE005E5
:1006C00001D52D2100E02B2108F8011BCDF82C804D
:1006D00021E00DF12901761E44F4007488450CD206
:1006E000AAF1300010F0FF0088F8000002D10B9949
:1006F000884509D908F1010806E0E00501D524483C
:1007000001E042F20F708146B9696D1C0E9888476E
:1007100082460F980560002E04DD504602F054F921
:100720000028D6D1F9690E988847FF208BF8000081
:1007300088F800000020069007904B466A4608A9FA
:1007400006A8FFF777FEA00502D46FF001002AE7A4
:1007500014F0240F0AD0E00714D1DDE9061238683E
:10076000031D3B600068C0E900120BE0DDE90601F3
:10077000FFF786FD0146E00704D13868021D3A60A4
:100780000068016028460EE7000014400000F03FBA
:10079000F1D8FFFF426842B1016811F8013B23B173
:1007A000521EC0E90012184670470121C160881E20
:1007B000704742685AB1C368016843B983688B4285
:1007C00005D0491E521CC0E90012002070474FF0AE
:1007D000FF3070477F2801D9002208E0064A02EB6B
:1007E0005002C007127800D1120902F00F02012056
:1007F0009040084070470000243700082DE9FE4F64
:1008000081EA030404F0004421F0004100944FF019
:10081000000B23F0004350EA01045ED052EA0304C7
:100820005BD0C3F30A54C1F30A552C44A4F2F33449
:100830000194A0FB0254C1F3130141F48011C3F3EE
:10084000130343F4801301FB024400FB034E840AAC
:10085000970A44EA815447EA8357A4FB0768029544
:100860008D0A05FB07854FEA932C04FB0C542705E2
:10087000029D4FEA065847EA1637B5EB08056EEBBE
:10088000070C870E920E47EA811742EA8312A7FBF4
:100890000201B6EB0B0164EB00042B0D43EA0C33B1
:1008A0005E1844EB1C50DA465146E7FB0201C5F3E3
:1008B00013044FEA0B3343EA14534FEA0432019C0A
:1008C00043EA0603A4F10C040294009CCDE900B4B1
:1008D00000F090F803B0BDE8F08F00200146F9E782
:1008E0002DE9F04D81EA030404F0004B21F00045AE
:1008F00014464FF0000A23F0004150EA050220D0D0
:1009000054EA01021DD0C5F30A570246C5F313038A
:10091000C1F31300C1F30A5640F4801543F4801369
:10092000A7EB0608101BD64608F2FD3873EB05004E
:1009300002D308F1010801E092185B41B8F1000F01
:1009400003DA00200146BDE8F08D00204FF480114D
:10095000064684460EE0171B73EB050705D3121BF2
:1009600063EB050306434CEA010C49084FEA3000EB
:1009700092185B4150EA0107EDD152EA030012D010
:1009800082EA040083EA0501084305D0101BAB414D
:1009900006D20122002306E000224FF0004302E0CD
:1009A0006FF0010253101AEB06004CEB085110EBEC
:1009B0000A0041EB0B01BDE8F04D00F00CB80EB59C
:1009C00040F2334202920022CDE90022134600F0A9
:1009D00011F803B000BD10B5141E73F1000408DA5D
:1009E000401C41F1000192185B411A4301D120F0F3
:1009F000010010BD2DE9F04D92469B4611B1B1FAB0
:100A000081F202E0B0FA80F220329046FFF754FC07
:100A100004460F4640EA0A0041EA0B0153465A4693
:100A2000084313D0114653EA010019D0C8F140021F
:100A30005046FFF750FC05460E4650465946424682
:100A4000FFF73AFC084305D0012004E02046394670
:100A5000BDE8F08D0020054346EAE0762C4337439D
:100A60000A986305E40AA0EB08000022FD0A44EAA4
:100A700047540A3002D500200146E9E70105101964
:100A80006941DDE9084500196941BDE8F04DA2E77B
:100A9000FEE7704772B6FEE72DE9F0410446876D28
:100AA00000F040F9054694F835000026022806D0EB
:100AB0008020606584F834600120BDE8F081206802
:100AC000016821F0160101602068416921F0800170
:100AD0004161206C08B9A06C20B12068016821F048
:100AE000080101602068016821F0010101600CE04B
:100AF00000F018F9401B052807D920206065032065
:100B000084F8350084F83460D7E720680068C007AF
:100B1000EED194F85C103F208840B860012084F842
:100B2000350084F834600020C7E790F835100229BA
:100B300003D08021416501207047052180F83510E0
:100B40000068016821F00101016000207047000089
:100B500070B5044600F0E6F80546601C02D0044873
:100B60000078044400F0DEF8401BA042FAD370BDC8
:100B7000240000202DE9F84FDFF87C910022A9F134
:100B8000040B03274FF00F0C09F1040AABF1040E1C
:100B900001250B6895402B40AB426ED10C7904F0D7
:100BA0000304012C01D0022C15D18668540007FAE9
:100BB00004F826EA0806D1F80C8008FA04F848EA96
:100BC0000608C0F808804468AC430D79C5F30015E9
:100BD0009540254345600C79E443A40708D0C568D7
:100BE000540007FA04F6B5438E68A6402E43C6604B
:100BF0000C7904F00304022C11D1D40800EB840614
:100C0000356A5407E40E0CFA04F825EA0805D1F811
:100C1000108008FA04F848EA0508C6F8208005683C
:100C2000540007FA04F6B5430E7906F00306A64011
:100C30002E4306604C6814F4403F57D02F4C256873
:100C400045F480452560246822F0030504F48044BF
:100C500000942B4C05EB0408D8F808589407260F8D
:100C60000CFA06F4A543274CA04201D1002415E05C
:100C7000254CA04202D1012410E037E0234CA042D1
:100C800001D102240AE0224CA04201D1032405E054
:100C9000204CA04201D1042400E00724B4402C439E
:100CA000C8F80848D9F800404D464E689C43F60203
:100CB00000D51C432C60DAF8004055464E689C4332
:100CC000B60200D51C432C60DBF800405D464E6840
:100CD0009C43B60300D51C432C60DEF800407546EB
:100CE0004E689C43F60300D51C432C60521C102A0E
:100CF000FFF44EAFBDE8F88F083C01404438024095
:100D000000300140000002400004024000080240A0
:100D1000000C0240001002400AB1816170470904D2
:100D2000FBE70000014880687047000024000020B5
:100D300070B5040025D094F83D00002520B984F852
:100D40003C50204600F050F9242084F83D002068F3
:100D5000016821F0010101602068016841F400414F
:100D600001602068016821F40041016000F0DCFAB4
:100D70004D4B6168994201D84C4900E04C4988428A
:100D800001D2012070BD4B492268B0FBF1F15668D9
:100D900026F03F060E43566062689A4206D94FF429
:100DA000967251434FF47A72B1FBF2F12268491CFA
:100DB000166A26F03F06314311626168994210D8E5
:100DC0004900401EB0FBF1F2521CC2F30B02042A90
:100DD00001D2042022E0B0FBF1F0401CC0F30B0074
:100DE0001CE0A268F2B301EBC10303EB0116431E42
:100DF000B3FBF6F35B1C43F480431B0549D092B36D
:100E000001EBC10202EB0111401EB0FBF1F0401CEE
:100E1000C0F30B0040F4804040F400402168CA69F0
:100E20004CF6FF739A431043C861D4E9071001439D
:100E30002068026822F0C00211430160D4E9030176
:100E400001432068826848F2FF339A43114381606E
:100E5000D4E9051001432068C26822F0FF02114363
:100E6000C16001E00EE016E02068016841F0010178
:100E700001602564202084F83D00256384F83E50FD
:100E8000002070BD01EB4106431EB3FBF6F35B1C73
:100E9000B3E70120C2E701EB4101401EB0FBF1F0D6
:100EA000401CC0F30B00B7E7A086010080841E0041
:100EB00000093D0040420F002DE9FF4F83B09A46E4
:100EC000DDE9119793460446DDF84080FFF72AFFDD
:100ED000054694F83D0020287FD11923012240497E
:100EE0002046009501F0E3FA002876D194F83C0002
:100EF000012872D0012084F83C0020680168C907ED
:100F000003D1016841F0010101602068016821F40A
:100F100000610160212084F83D00402084F83E00FB
:100F200000262664C4F82480A4F82A90608D2085C9
:100F30002C48E062CDE9007553465A462046049994
:100F400001F04AFA70B930E02A463946204601F0ED
:100F50001DFB58B1206C042804D12068016841F4BD
:100F600000710160012007B0BDE8F08F606A216860
:100F700000780861626A521C6262208D401E80B255
:100F80002085618D491E618521684B69DB435B07C4
:100F90000BD468B110780861606A401C6062208DD3
:100FA000401E2085608D401E6085208D0028CBD19D
:100FB0002A463946204601F0BEFA0028CAD154F824
:100FC0003D0B016841F400710160202004F81E0906
:100FD000E67766770020C6E7FFE70220C3E7000058
:100FE000020010000000FFFF2DE9F04186B004462A
:100FF00014216846FFF724F921682D4C2B4B00255E
:101000002B48122603270422DFF8A88010349942C7
:1010100019D1016841F0020101600068029500F0F9
:1010200002000590C020CDE90006CDE903726946B3
:101030004046FFF79FFD206840F4001020602068C4
:1010400000F400102EE01C4B99422CD1016841F0B5
:1010500001010160016801F001010591016841F0A1
:10106000020101600068029500F0020005909815E9
:10107000CDE90006CDE9037269461048FFF77AFD15
:101080001020CDE9000602950920CDE903706946DC
:101090004046FFF76FFD206840F4000020602068A4
:1010A00000F40000059006B0BDE8F0810054004057
:1010B0003038024000040240005C00400000024062
:1010C0000248816802781144816070472400002042
:1010D0000B4810B5016841F400710160016841F4EA
:1010E00080610160016841F480710160032000F0BB
:1010F0006FF80F2000F006F800F024F8002010BD73
:10110000003C024070B50D4D04464FF47A712878CA
:10111000B1FBF0F00A490968B1FBF0F000F002FB06
:1011200048B9102C07D200222146501E00F030F89A
:1011300000206C6070BD012070BD00002400002004
:10114000300000200A4808B5016841F48041016080
:10115000006800F4804000900548001F016841F0DD
:1011600080510160006800F08050009008BD0000D0
:1011700044380240002809DB00F01F0201219140A1
:101180004009800000F1E020C0F800117047000025
:10119000F0B40E4B1B68C3F30223C3F10704042C05
:1011A00000D904241D1D072D01D2002300E0DB1E01
:1011B000012606FA04F56D1E0D409D409E40761EE8
:1011C000164045EA0601F0BC01F0B5BB0CED00E0AD
:1011D000064A00F0070110684FF6FF03184040EA86
:1011E0000120034908431060704700000CED00E047
:1011F0000000FA052DE9F0470D46040065D0DFF840
:101200001491D9F80000EFB200F00700A84207D20D
:1012100089F80070D9F8000000F00700A84254D106
:1012200020683D4E810712D5400703D5306840F451
:10123000E05030602078000703D5306840F460400B
:1012400030603068A16820F0F000084330602078FA
:10125000C0072DD0304960680839012812D0022813
:1012600013D0032811D00968890700292DDA3168C5
:1012700021F0030101433160FFF754FD804641F244
:10128000883A0EE009688903EFE709688901ECE70D
:10129000FFF748FDA0EB0801514502D90320BDE846
:1012A000F0873068616800F00C00B0EB810FEFD17F
:1012B000D9F80010484601F00701A94207D9077084
:1012C000006800F00700A84201D00120E7E720787D
:1012D000400705D53068E16820F4E05008433060ED
:1012E0002078000706D53068216920F4604040EA84
:1012F000C100306000F038F83168084AC1F30311CA
:10130000515CC8400649086006480068FFF7FAFECD
:101310000020C4E7003C0240083802400C370008B7
:1013200030000020280000200448054900680968B2
:10133000044AC1F38221515CC8407047300000204C
:10134000083802401C37000804480549006809684D
:10135000044AC1F34231515CC8407047300000205C
:10136000083802401C370008154810B5006810F016
:101370000C01144813D0144B04290FD008290ED1A6
:101380000F4C241F216801F03F022168490207D554
:101390002068C0F38810A0FB030106E0184610BDCA
:1013A0002168C1F38811A1FB00010023FEF710FFA3
:1013B0002168C1F30141491C4900B0FBF1F010BDA7
:1013C000083802400024F40040787D012DE9F84FF0
:1013D000040075D02078DFF838A3C007AAF104050F
:1013E00048D00AF104000168C1F38101012908D045
:1013F0000068C0F3810002280AD1DAF80000400238
:1014000006D52868800335D560680028E1D031E032
:101410006068B0F5803F10D0B0F5A02F286810D0DC
:1014200020F480302860286820F4802028606068DC
:10143000A0B1FFF777FC06460CE0286840F4803046
:10144000F4E740F480202860F7E7FFF76BFC801B8F
:10145000642871D828688003F7D50BE0FFF762FC99
:10146000064604E0FFF75EFC801B6428F1D828687C
:101470008003F7D42078DFF89C9280074FF0000BB0
:101480003DD5A348001D016811F00C0F08D000687D
:10149000C0F3810002280AD1DAF80000400206D425
:1014A0002868800715D5E068012809D111E0E068B7
:1014B000B8B10120C9F80000FFF734FC064605E08A
:1014C00022E1FFF72FFC801B0228C2D82868800782
:1014D000F7D52868216920F0F80040EAC1002860AB
:1014E0000DE0C9F800B0FFF71DFC064604E0FFF769
:1014F00019FC801B02281FD828688007F7D42078A1
:10150000000722D5824F84486169703771B101218B
:101510000160FFF707FC064604E0FFF703FC801BB1
:10152000022809D838688007F7D50EE0C0F800B067
:10153000FFF7F8FB064605E082E0FFF7F3FB801BB0
:1015400002287DD838688007F7D42078400765D511
:101550006F484FF000083C300068C0000BD46C4866
:101560003C30016841F08051016000684FF0010893
:1015700000F080500090694F3868C0050FD438687B
:1015800040F480703860FFF7CDFB064604E0FFF7BB
:10159000C9FB801B022853D83868C005F7D55C4FBB
:1015A000A0686C3701280FD00528386810D020F0CB
:1015B00001003860386820F004003860A068B0B1DD
:1015C000FFF7B0FB06460EE0386840F00100F4E794
:1015D00040F004003860F7E7FFF7A4FB811B41F2FD
:1015E0008830814263D838688007F5D50DE0FFF771
:1015F00099FB064606E0FFF795FB811B41F2883018
:10160000814254D838688007F5D4B8F1000F05D06E
:101610003F483C30016821F080510160A069B8B3B7
:101620003B49091D0968C1F38101022946D00228FE
:10163000584606D0C9F86000FFF774FB044639E04D
:1016400035E04F46C9F86000FFF76CFB064604E042
:10165000FFF768FB801B022829D828688001F7D48F
:10166000D4E907010843A16A2D4A490802EB014168
:10167000626A41EA8211084394F82C1040EA016141
:10168000CAF8001001203866FFF74CFB044605E05D
:101690003CE0FFF747FB001B022808D828688001C0
:1016A000F7D533E0FFF73EFB001B022802D90320E9
:1016B000BDE8F88F28688001F4D427E00128F7D02E
:1016C000DAF80000E26900F4800191421CD1226A3C
:1016D00000F03F01914217D147F6C071626A0140A4
:1016E000B1EB821F10D1A26A4FF0FF3300F44031FA
:1016F00003EB5202B1EB024F06D194F82C1000F02C
:101700007060B0EB016F01D00120D1E70020CFE77E
:101710000438024000004742800E474200700040FB
:101720000000FFFF10B5401EB0F1807F01D3012003
:1017300010BD4FF0E02460610F21601701F0FBF84D
:101740000020A06107202061002010BD7047704775
:10175000F8B5016804460868CA684B6910F00F0FB5
:101760004FF0000559D003F0010602F4907737439B
:1017700065D0C10705D0D10503D5616C41F00101E9
:101780006164410705D5D90703D0616C41F00201BE
:101790006164810705D5D90703D0616C41F004016C
:1017A0006164010707D502F02001314303D0616C69
:1017B00041F008016164616C00293AD0800604D5CB
:1017C000900602D5204600F0EFFF20684069616C6A
:1017D000C0F38010090700D460B3204601F045F83B
:1017E00020684069400621D52068143050E8001F69
:1017F00021F0400140E80012002AF5D1E06BA8B1C9
:1018000072490165E06BFFF790F9002811D0E06B99
:10181000016D01B0BDE8F040084783060FD593067F
:101820000DD52046BDE8F84000F0BEBF2046FFF7CA
:101830008EFFF8BD2046FFF78AFF6564F8BD266B72
:101840002023012E7ED1C6067CD5D6067AD508681F
:101850004868009048694FF0020640064DD5E26B9B
:10186000106840684FF480770004000C3AD0A18DD6
:10187000814237D9E085D069B8422DD020680C303C
:1018800050E8001F21F4807140E80012002AF5D1D1
:101890002068143050E8001F21F0010140E80012D8
:1018A000002AF5D12068143050E8001F21F04001D3
:1018B00040E80012002AF5D184F842302563206800
:1018C0000C3050E8001F21F0100140E80012002AFF
:1018D000F5D1E06BFFF7E0F86663A08DE18D401A6B
:1018E00081B206E0A18D8142A8D1D069B842A5D1CC
:1018F00066632046FFF72AFFF8BDA08DE18D401AF0
:1019000081B2E08D0028F7D00029F5D020680C3096
:1019100050E8002F22F4907240E80027002FF5D104
:101920002068143050E8002F22F0010240E8002720
:10193000002FF5D184F84230256320680C3050E840
:10194000002F00E006E022F0100240E80023002B08
:10195000F3D1CDE705062BD5150629D594F841001E
:101960002128C9D1A068B0F5805F01D12069B0B14C
:10197000206A411C2162216800784860E08C401E8A
:101980000004000CE084B7D12068C16821F0800118
:10199000C1602068C16841F04001C160F8BD206AA3
:1019A0000088C0F308004860206A801C2062E5E7D8
:1019B0004006F3D55006F1D5CA68204622F0400211
:1019C000CA6084F8413000F037F9F8BDB928000842
:1019D00070B5040004D094F84100002510B106E071
:1019E000012070BD84F84050204600F023F82420E8
:1019F00084F841002068C16821F40051C16020468C
:101A000000F04CFE2068016921F4904101612068DA
:101A1000416921F02A0141612068C16841F4005107
:101A2000C1606564202084F8410084F84200656349
:101A3000002070BD70B586B0044614216846FEF7DC
:101A4000FFFB2A4E21680025294A02230324294846
:101A5000B14221D1264910310E6846F400360E609D
:101A6000096801F400310591116841F0010111602C
:101A7000116801F0010105910C218DE82A00072170
:101A8000CDE903416946FFF775F8002201212620C0
:101A9000FFF77EFB262024E0174EB14223D11449E4
:101AA00014310E6846F020060E60096801F020012E
:101AB0000591116841F001011160116801F0010107
:101AC00005914FF4C0518DE82A000821CDE903416A
:101AD0006946FFF74FF8002211464720FFF758FBF1
:101AE0004720FFF747FB06B070BD000000440040F0
:101AF00030380240000002400014014090F84230AB
:101B0000202B01D00220704721B11AB100230363BA
:101B100000F050B90120704770B5044600681949BB
:101B2000194D884216D1194A2978E8785054491C31
:101B3000C9B229700D2801D03F2905D30020505487
:101B400001216970287005E00F490122C91C204657
:101B5000FFF7D4FF0E492068884212D1A888FF28D9
:101B600002D2A888401CA880FFF7DCF8A8600748CC
:101B7000A9884030BDE87040014401220548FFF7C4
:101B8000BDBF70BD004400400000002038000020B0
:101B900000140140740200202DE9F843044690F837
:101BA00041001F4615460E46202802D00220BDE8FF
:101BB000F8838EB185B100206064212084F8410053
:101BC000FFF7B0F8A5848146E584A0684FF02008AF
:101BD000B0F5805F02D003E00120E8E7206910B192
:101BE000354600260EE000250CE08021204600F05E
:101BF0006AFEA0B9BDB115F8010B21684860E08C00
:101C0000401EE084E08C4B464FF000020097002815
:101C1000EBD14FF04001204600F055FE40B184F872
:101C200041800320C3E736F8020BC0F30800E4E765
:101C300084F841800020BAE77047FEE730B587B0EE
:101C400014216846FEF7FCFA15480024016841F0AB
:101C500080010160016801F080010591016841F097
:101C600001010160016801F001010591016841F085
:101C70000201016000680B4D00F002000590012296
:101C800002212846FFF748F8022000900120CDE904
:101C90000104694628460394FEF76CFF07B030BD87
:101CA00030380240000002400D4810B50B49016079
:101CB0000C49416000214FF480428160C0E9031269
:101CC00041618161C1610162FFF732F8002803D0F0
:101CD000BDE81040FEF7DEBE10BD0000005400401D
:101CE00084010020801A06000D4810B50B490160E0
:101CF0000C49416000214FF480428160C0E9031229
:101D000041618161C1610162FFF712F8002803D0CF
:101D1000BDE81040FEF7BEBE10BD0000005C0040F4
:101D2000D8010020A08601000C4810B50A490160C6
:101D30004FF461414160002181600C22C160C0E923
:101D400004128161C161FFF743FE002803D0BDE8A2
:101D50001040FEF79FBE10BD004400402C02002042
:101D60000C4810B50A4901604FF4E131416000218F
:101D700081600C22C160C0E904128161C161FFF77A
:101D800027FE002803D0BDE81040FEF783BE10BD3B
:101D90000014014074020020FEE7FEE77047704720
:101DA000FFF78EB90248016841F470010160704785
:101DB00088ED00E081628285C28500214164222194
:101DC00080F84210016921B10168CA6842F480724A
:101DD000CA6001684A6942F001024A610068C1684C
:101DE00041F02001C1600020704700000148FFF76A
:101DF000AFBC00002C0200200148FFF7A9BC000086
:101E000074020020FEE710B50446B031C8B200F0FD
:101E100047FA102040EA141000F042FA04F00F00D4
:101E2000BDE8104040F0010000F03ABA2DE9F04161
:101E300015460E4607460024FFF7E5FF0C4800EB69
:101E40004515285D00F0B6FA641CE4B2102CF8D3F6
:101E5000761CF1B23846FFF7D6FF00242819007C23
:101E600000F0A8FA641CE4B2102CF7D3BDE8F081AE
:101E70000C3600082DE9F047002692460F4604462E
:101E8000012B22D0DFF8B490022B24D151E020386E
:101E900000F0FF087E2C02D900247F1CFFB23946D7
:101EA0002046FFF7B0FF08EB4800002509EB40088B
:101EB00018F8050000F07EFA6D1CEDB2062DF7D380
:101EC000A41D761CE4B2F6B201E0DFF874901AF8B3
:101ED00006000028DBD1BDE8F087203800F0FF08BD
:101EE000782C02D900247F1CFFB239462046FFF728
:101EF0008AFF002505EB081119F8010000F05AFAD5
:101F00006D1CEDB2082DF5D3781CC1B22046FFF749
:101F10007AFF002505EB081101EB0900007A00F0BB
:101F200049FA6D1CEDB2082DF4D30834761CE4B2E6
:101F3000F6B21AF806000028CFD1CCE71C30000812
:101F4000F42D000810B50446FEF785F9214682B24B
:101F5000BDE810400A230148FFF71EBE2C020020F6
:101F6000F0B514212DED048B91B001A8FEF768F9AE
:101F7000142106A8FEF764F914210BA8FEF760F9F6
:101F80004648FEF768F901460BA8009006AB01AA87
:101F9000424800F095F800284FD141A106A8FEF76D
:101FA00061F9002849D10BA800F0D6FC51EC100BC8
:101FB000FEF766F908EE100A3CA101A8FEF752F9F7
:101FC0009FED3B9A0A263B4D3B4CF2EE048A2E27AE
:101FD000B8B33AA101A8FEF745F900282DD1B5EE16
:101FE000C08A84ED068AF1EE10FA01D2B0EE498A79
:101FF000BDEEC80A10EE100A00EE100A90FBF6F2D1
:10200000B8EEC00A303238EE400A20EE280ABDEEA3
:10201000C00A10EE101AC4E907012A7090FBF6F20C
:1020200006FB1200303068703031AF70E970022367
:10203000204A19465020FFF71DFF11B0BDEC048B5C
:10204000F0BDFFE7B5EEC08A84ED058AF1EE10FA27
:1020500001D2B0EE498A0223BDEEC80A10EE100A82
:1020600000EE100A90FBF6F2B8EEC00A303238EEFD
:10207000400A20EE280ABDEEC00A10EE101AC4E98C
:1020800007012A7090FBF6F206FB120030306870F0
:10209000AF703031E970074A0021CBE778000020AB
:1020A000544341444A54454D5000000054433100CC
:1020B000000000007801002000000020544332009E
:1020C0002DE9F0434FF0000806464546C44604207B
:1020D0004446DDF81C9013E0375D3A2F04D03D2FC5
:1020E0000AD03F2F0BD103E0E5B24FF0010806E024
:1020F00004F0FF0C012002E004F0FF0C0020641C3F
:102100008C42E9DBB8F1010F0BD1042809D0A1EB17
:102110000C01891ECCB2ACEB0501491ECFB20021E7
:1021200007E00420BDE8F08316F801C002F801C002
:10213000491CA942F8DB4FF0000C02F805C06146CB
:1021400004E04A19324452785A54491CB942F8DB27
:1021500003F807C00028E5D1002106E04A193A44F7
:102160003244937809F80130491CA142F6DB09F8A2
:1021700004C0D7E730B591B0142101A8FEF760F88C
:10218000142106A8FEF75CF814210BA8FEF758F8F6
:102190001548FEF760F801460BA8009006AB01AAAF
:1021A0001148FFF78DFF00281AD110A106A8FEF7ED
:1021B00059F8002814D10BA800F0CEFB51EC100BFD
:1021C000FEF75EF804460CA101A8FEF74BF80B4D94
:1021D00040B10BA101A8FEF745F8002800D12C6101
:1021E00011B030BDEC60FBE73800002054434143A0
:1021F0005454454D5000000054433100000000206D
:102200005443320030B593B030216846FEF718F8D9
:1022100014210CA8FEF714F81D480025016841F0B0
:1022200080510160006800F08050119019480168E9
:1022300021F4404141F4004101600068022400F4AF
:1022400040401190012003901020049000940694C7
:102250000820CDE907505420CDE9090404200B9053
:102260006846FFF7B3F808B172B6FEE70CA90F2075
:1022700081E831004FF48050CDE90F0502210CA810
:10228000FEF7B8FF002801D072B6FEE713B030BDEC
:102290004038024000700040002000F013B80000F9
:1022A00001B584B00121642204A88DE807000B4623
:1022B000002278210248FEF7FFFD05B000BD0000B6
:1022C0008401002070B50646002505F1B000C0B2BB
:1022D000FFF7E6FF0020FFF7E3FF1020FFF7E0FF26
:1022E0000024304600F066F8641CE4B2802CF8D379
:1022F0006D1CEDB2082DE8D370BD10B56420FEF75B
:1023000027FCAE20FFF7CCFF2020FFF7C9FF1020ED
:10231000FFF7C6FFB020FFF7C3FFC820FFF7C0FFDD
:102320000020FFF7BDFF1020FFF7BAFF4020FFF7A6
:10233000B7FF8120FFF7B4FFFF20FFF7B1FFA12017
:10234000FFF7AEFFA620FFF7ABFFA820FFF7A8FF1F
:102350003F20FFF7A5FFA420FFF7A2FFD320FFF740
:102360009FFF0020FFF79CFFD520FFF799FFF0208B
:10237000FFF796FFD920FFF793FF2220FFF790FF8A
:10238000DA20FFF78DFF1220FFF78AFFDB20FFF72F
:1023900087FF2020FFF784FF8D20FFF781FF1420A7
:1023A000FFF77EFFAF20FFF77BFFBDE81040002066
:1023B000FFF788BF01B584B00121642204A88DE82D
:1023C00007000B46402278210248FEF775FD05B054
:1023D00000BD0000840100202DE9F8430446006898
:1023E0000D46DDE9089701689846164641F480716C
:1023F00001604B4600224FF001112046009700F08B
:1024000056F848B120680068C00502D54FF4007046
:1024100020640320BDE8F883216805F0FE00086110
:102420003B464A461549204600F0DBF888B920684B
:102430004169806900903A464946204600F0A6F876
:1024400048B1206C042804D12068016841F400716F
:1024500001600120DEE7F5B2B8F1010F09D0216873
:10246000300A08613A464946204600F08FF80028B5
:10247000E7D1206805610020CCE7000002000100E0
:1024800001684A69D24352050FD46FF480624A61F1
:10249000002140F8301F202242738173026942F00C
:1024A00004020261017301207047002070472DE98A
:1024B000F0471E4690460D460446C1F30747DDF837
:1024C000209026E0701C24D0FEF72CFCA0EB090025
:1024D000B04200D8EEB92068012F16D0806925EAF5
:1024E00000000004000C12D00020404511D1002053
:1024F00044F8300F20216173A073216941F020015D
:10250000216120730120BDE8F0874069E7E70120E1
:10251000EBE72068012F0AD0806925EA000000045B
:10252000000C06D000204045CCD00020EBE74069ED
:10253000F3E70120F7E770B516460D4604461EE0A6
:102540002046FFF79DFF08B1012070BD681C16D022
:10255000FEF7E8FB801BA84200D885B920684069D7
:10256000C04340070BD5002044F8300F2021617391
:10257000A073216941F0200121612073E4E7206804
:102580004069C0434007DBD4002070BD70B51646DB
:102590000D4604461EE02046FFF772FF08B10120F9
:1025A00070BD681C16D0FEF7BDFB801BA84200D88A
:1025B00085B920684069C04300060BD5002044F867
:1025C000300F20216173A073216941F02001216146
:1025D0002073E4E720684069C0430006DBD4002094
:1025E00070BD2DE9F047984616460D4604464FF05B
:1025F00000094FF0200AC1F3074723E02068406933
:10260000C043400515D42068016841F400710160A1
:1026100021686FF480604861C4F8309084F83DA070
:1026200084F83E90216C41F00401216484F83C90D0
:1026300020E0701C06D0FEF775FBA0EB0800B0424E
:1026400003D816B1012F1ED020E02068012F14D02E
:10265000806925EA00000004000C17D044F8309F80
:1026600084F80DA084F80E90216941F020012161C9
:1026700084F80C900120BDE8F087406925EA00004D
:102680000004000CEAD12068406901E020688069FC
:1026900025EA00000004000CB0D1ECE770B5044658
:1026A00000680169E26821F4405111430161A168A9
:1026B0002069E26901436069104301432068C268F0
:1026C00049F20C639A430A43C26020684169A269D7
:1026D00021F440711143416131492068884202D0A0
:1026E0003049884202D1FEF72FFE01E0FEF71CFEC2
:1026F000E2690023192164253226B2F5004F626891
:1027000028D0A0FB0101930F9200FDF761FD014667
:10271000B0FBF5F06FF01802504301EB800006EBC0
:102720000010B0FBF5F000F0F002B1FBF5F002EBA9
:102730000012B1FBF5F06FF01803584301EB800075
:1027400006EB0010B0FBF5F000F00F00216810441C
:10275000886070BDA0FB010192185B41FDF738FD58
:102760000146B0FBF5F00201B1FBF5F06FF0180384
:10277000584301EB800006EBC000B0FBF5F000F021
:10278000F80002EB4002B1FBF5F0584301EB80008A
:1027900006EBC000B0FBF5F000F00700D6E7000044
:1027A000001001400014014008B590F842102229A1
:1027B00001D0022008BD81684FF48053994201D1B5
:1027C000026922B1826A99421BD049B10AE00268CB
:1027D000816A5268C2F308020A80816A891C08E093
:1027E000016971B10168496801F07F011170816A66
:1027F000491C8162C18D491E0904090CC18503D0A1
:102800001BE001684968F1E70168CA6822F020020C
:10281000CA600168CA6822F48072CA6001684A69A5
:1028200022F001024A61202180F842100021416318
:10283000026B012A03D0FFF76FF9002008BD016386
:1028400001680C3151E8002F22F0100241E800230A
:10285000002BF5D101680A68D20602D50A684968DA
:102860000091818DFEF772FFE7E701680C3151E8B6
:10287000002F22F4907241E80023002BF5D101686B
:10288000143151E8002F22F0010241E80023002B0F
:10289000F5D1016B012909D101680C3151E8002FF4
:1028A00022F0100241E80023002BF5D1202180F80E
:1028B000421000210163704710B5806B0021C18573
:1028C000FEF745FF10BD2DE9F8431F4690460D4623
:1028D0000446089E23E0701C21D0FEF723FAC01B9B
:1028E000B0421AD8CEB12068C168490717D5802DEB
:1028F00015D0402D13D00168C94309070FD40168D2
:102900000025406800902046FFF7AFFF0820606474
:1029100084F840500120BDE8F8830320FBE72068DD
:10292000006835EA000004D000204045D3D00020E4
:10293000F1E70120F9E70907090E002804DB00F19F
:10294000E02080F80014704700F00F0000F1E02054
:1029500080F8141D7047000030B583B0044600F0C5
:1029600017F89FED090B05468DED000B002221465F
:102970006846FDF7DCFC284600F020F89DED000BD2
:1029800003B030BD000000000000000000000000A7
:1029900001480068704700003400002002E008C8C9
:1029A000121F08C1002AFAD170477047002001E0C9
:1029B00001C1121F002AFBD17047000001490860C5
:1029C000704700003400002030380A2801D201206E
:1029D00070470020704700002DED048B82B0FEF799
:1029E00077FBFFF70FFCFFF729F9FFF75DF9FFF71A
:1029F0007BF9FFF799F9FFF7B3F90122EC49ED48AC
:102A0000FFF77CF8FFF779FCFFF746FC0021032273
:102A10000846FFF70BFA042200211020FFF706FA00
:102A2000002211462020FFF701FA01220021302068
:102A3000FFF7FCF90223E0A200214020FFF71AFA79
:102A40000223DEA200214820FFF714FA072200210A
:102A50007020FFF7EBF9DA4C94ED058ADFEDD99A97
:102A6000B5EEC08AF1EE10FA01D2B0EE698AB2EE8C
:102A7000049ABDEEC80A0A27D34E10EE100A2E257E
:102A8000022300EE100A90FBF7F2B8EEC00A3032D3
:102A900038EE400A20EE090ABDEEC00A10EE101A08
:102AA000C4E90701327090FBF7F207FB12003030E7
:102AB0007070B5703031F170324600215020FFF750
:102AC000D9F9032202210020FFF7B0F904220221E4
:102AD0001020FFF7ABF9002202212020FFF7A6F912
:102AE000012202213020FFF7A1F90223B7A21946E3
:102AF0004020FFF7BFF90223B0A219464820FFF794
:102B0000B9F9072202217020FFF790F9D4ED068A67
:102B1000F5EEC08AF1EE10FA01D2F0EE698A0223D6
:102B2000BDEEE80A10EE100A00EE100A90FBF7F274
:102B3000B8EEC00A303238EEC00A20EE090ABDEE07
:102B4000C00A10EE101AC4E90701327090FBF7F2C8
:102B500007FB120030307070B5703031F1709A4A56
:102B600019465020FFF786F9052204210020FFF7BF
:102B70005DF9062204211020FFF758F900220421F4
:102B80002020FFF753F9012204213020FFF74EF9EE
:102B9000022389A204214020FFF76CF9022387A2B7
:102BA00004214820FFF766F9072204217020FFF76F
:102BB0003DF9052206210020FFF738F906221146CB
:102BC0001020FFF733F9002206212020FFF72EF90D
:102BD000012206213020FFF729F902237BA20621DA
:102BE0004020FFF747F9022374A206214820FFF78F
:102BF00041F9072206217020FFF718F970490122D8
:102C0000C91C7348FEF77AFFA846DFF8A491DFF8E5
:102C1000C0A10025A07848B9A08838B1FEF782F895
:102C2000A168401A0A2801D90120A0706078012803
:102C300008D1FFF79FFA624965700122C91C6448F8
:102C4000FEF75CFF63A0FFF77DF93220FDF780FF00
:102C50006078012808D1FFF78DFA59496570012283
:102C6000C91C5B48FEF74AFF94ED030AB5EEC00AA3
:102C7000F1EE10FA01D2B0EE690A0223FDEEC00AAD
:102C800010EE900A00EE900A90FBF7F2F8EEE00AE0
:102C9000303230EE600A20EE090ABDEEC00A10EEB6
:102CA000101AC4E90701327090FBF7F207FB12001B
:102CB0003030707086F802803031F170424A042161
:102CC0005020FFF7D7F847A0FFF73CF93220FDF777
:102CD0003FFF6078012808D1FFF74CFA384965704A
:102CE0000122C91C3A48FEF709FF94ED040AB5EE2B
:102CF000C00AF1EE10FA01D2B0EE690A0223FDEE2D
:102D0000C00A10EE900A00EE900A90FBF7F2F8EE7F
:102D1000E00A303230EE600A20EE090ABDEEC00A49
:102D200010EE101AC4E90701327090FBF7F207FBAE
:102D300012003030707086F802803031F170224A13
:102D400006215020FFF796F8A07801282BD100200B
:102D50004A4608E0115CA1F16103192B01D8203922
:102D60001154401C80B2A1888842F3D3A088FF2868
:102D700006D2A1880D2009F80100A088401CA0807F
:102D8000FFF7EEF8DAF800000168C943090702D43A
:102D9000016840680090A288642305490C48FEF74A
:102DA000FBFEA580A570FA20FDF7D2FE32E70000F9
:102DB0007800002074020020310000003A0000007A
:102DC0000000002000000000780100203200000018
:102DD0002C0200205443313A544341435454454D4E
:102DE000503F0D005443323A544341435454454DEF
:102DF000503F0D000000000000000000002F000008
:102E000000000700070000147F147F1400242A7FAD
:102E10002A1200626408132300364955225000002C
:102E20000503000000001C224100000041221C009C
:102E30000014083E08140008083E0808000000A01E
:102E4000600000080808080800006060000000201A
:102E500010080402003E5149453E0000427F4000F8
:102E6000004261514946002141454B31001814127E
:102E70007F10002745454539003C4A49493000014B
:102E80007109050300364949493600064949291E9A
:102E900000003636000000005636000000081422FC
:102EA00041000014141414140000412214080002FC
:102EB0000151090600324959513E007C1211127C21
:102EC000007F49494936003E41414122007F41414E
:102ED000221C007F49494941007F09090901003E40
:102EE0004149497A007F0808087F0000417F41007E
:102EF000002040413F01007F08142241007F4040F4
:102F00004040007F020C027F007F0408107F003EDB
:102F10004141413E007F09090906003E4151215EC1
:102F2000007F091929460046494949310001017FBE
:102F30000101003F4040403F001F2040201F003F54
:102F40004038403F00631408146300070870080706
:102F500000615149454300007F41410000552A5519
:102F60002A55000041417F00000402010204004094
:102F700040404040000001020400002054545478B6
:102F8000007F4844443800384444442000384444D6
:102F9000487F00385454541800087E090102001874
:102FA000A4A4A47C007F080404780000447D4000B1
:102FB000004080847D00007F102844000000417F95
:102FC0004000007C04180478007C08040478003871
:102FD0004444443800FC242424180018242418FCF9
:102FE000007C0804040800485454542000043F4462
:102FF0004020003C4040207C001C2040201C003C25
:103000004030403C004428102844001CA0A0A07C74
:10301000004464544C4414141414141400000000AC
:10302000000000000000000000000000000000F8A8
:1030300000000000000000333000000000100C060B
:10304000100C0600000000000000000040C07840A6
:10305000C0784000043F04043F040400007088FC72
:1030600008300000001820FF211E0000F008F000CA
:10307000E018000000211C031E211E0000F008883B
:10308000700000001E2123241927211010160E00A5
:10309000000000000000000000000000000000E050
:1030A0001804020000000007182040000002041865
:1030B000E00000000040201807000000404080F0C1
:1030C000804040000202010F01020200000000F0F7
:1030D000000000000101011F0101010000000000CB
:1030E0000000000080B07000000000000000000040
:1030F00000000000000101010101010100000000C9
:10310000000000000030300000000000000000005F
:1031100080601804006018060100000000E010083C
:103120000810E000000F102020100F00001010F811
:10313000000000000020203F202000000070080850
:1031400008887000003028242221300000300888D0
:10315000884830000018202020110E000000C020F8
:1031600010F8000000070424243F240000F8088819
:10317000880808000019212020110E0000E01088A6
:1031800088180000000F112020110E0000380808D8
:10319000C83808000000003F0000000000708808E8
:1031A00008887000001C222121221C0000E0100869
:1031B0000810E0000000312222110F00000000C0C2
:1031C000C00000000000003030000000000000805F
:1031D000000000000000806000000000000080404F
:1031E0002010080000010204081020004040404068
:1031F00040404000040404040404040000081020BB
:1032000040800000002010080402010000704808FF
:103210000808F0000000003036010000C030C82867
:10322000E810E0000718272423140B000000C03822
:10323000E0000000203C23020227382008F888889C
:1032400088700000203F202020110E00C0300808A8
:1032500008083800071820202010080008F808087F
:103260000810E000203F202020100F0008F8888878
:10327000E8081000203F20202320180008F8888844
:10328000E8081000203F200003000000C0300808BC
:103290000838000007182020221E020008F8080045
:1032A0000008F808203F210101213F20000808F80C
:1032B000080800000020203F20200000000008082F
:1032C000F8080800C08080807F00000008F888C0EF
:1032D00028180800203F20012638200008F80800A0
:1032E00000000000203F20202020300008F8F800D7
:1032F000F8F80800203F003F003F200008F830C0E9
:103300000008F808203F200007183F00E0100808D8
:103310000810E0000F10202020100F0008F8080807
:103320000808F000203F210101010000E01008081A
:103330000810E0000F18242438504F0008F888883F
:1033400088887000203F2000030C3020007088081F
:10335000080838000038202121221C00180808F82D
:10336000080818000000203F2000000008F80800AE
:103370000008F808001F202020201F00087888007F
:1033800000C83808000007380E010000F80800F8EF
:103390000008F800033C0700073C03000818688099
:1033A0008068180820302C03032C30200838C8000F
:1033B000C83808000000203F20000000100808085E
:1033C000C83808002038262120201800000000FE00
:1033D000020202000000007F40404000000C30C0AC
:1033E00000000000000000010638C00000020202D8
:1033F000FE000000004040407F000000000004028A
:1034000002020400000000000000000000000000B4
:1034100000000000808080808080808000020204A4
:10342000000000000000000000000000000080809C
:10343000808000000019242222223F2008F800800A
:1034400080000000003F112020110E0000000080CD
:1034500080800000000E112020201100000000805C
:103460008088F800000E112020103F20000080808E
:1034700080800000001F222222221300008080F0A2
:10348000888888180020203F2020000000008080CD
:1034900080808000006B94949493600008F8008012
:1034A00080800000203F210000203F20008098986D
:1034B000000000000020203F2020000000000080CD
:1034C0009898000000C08080807F000008F800000D
:1034D00080808000203F24022D302000000808F862
:1034E000000000000020203F20200000808080801D
:1034F00080808000203F20003F20003F80800080AF
:1035000080800000203F210000203F2000008080BC
:1035100080800000001F202020201F00808000806D
:103520008000000080FFA12020110E00000000801C
:1035300080808000000E112020A0FF80808080000D
:103540008080800020203F2120000100000080803A
:10355000808080000033242424241900008080E02F
:10356000808000000000001F2020000080800000FC
:1035700000808000001F202020103F2080808000DD
:103580000080808000010E300806010080800080ED
:10359000008080800F300C030C300F000080800012
:1035A000808080000020312E0E312000808080003D
:1035B0000080808080818E701806010000808080ED
:1035C000808080000021302C22213000000000008B
:1035D000807C020200000000003F4040000000002C
:1035E000FF00000000000000FF0000000002027C5D
:1035F000800000000040403F000000000006010184
:103600000202040400000000000000001060028CB0
:103610000000FE9292929292FE00000004047E014D
:10362000407E42427E427E42427E40000000FC24B8
:103630002424FC252624FC242424040040308F80EC
:10364000844C55252525554C8080800000000000C5
:10365000000000000000000000000000000000006A
:10366000000036360000000000000000404042CC60
:103670000040A09E8282829EA02020000000003F89
:10368000908840432C10284641808000100C444410
:10369000444445C64444444444140C008040201E25
:1036A0002040407F4444444444404000100C048483
:1036B00014640506F404040404140C000484844413
:1036C0004724140C070C14244484040000FE225ADE
:1036D000860020222222E2222222200000FF04086B
:1036E00007100C0340807F0001061800060909E658
:1036F000F80C040202020202041E0000000000078F
:103700001F302040404040402010000000000000DA
:103710000000000001020304060708090000000081
:1037200001020304DDDDDDDDDCBBBBDDDDDDDDDD78
:10373000DDDDDDDD988888888888888877777777E9
:1037400077888888855555566666666666666666B5
:103750006668888883333332222222222222222260
:103760002228888D843700080000002038000000DF
:103770009C290008BC37000838000020880600009B
:10378000AC2900080000000000000000000000005C
:1037900000000000000000000000C8410000C84117
:1037A0000000000000000000010000001000000008
:0C37B000000000000024F40000000000F5
:040000050800019559
:00000001FF
